S01800006275696C642F6D6963617A2F6D61696E2E73726563E5
S11300000C9449000C94D5050C94DF050C94E90577
S11300100C94F3050C94FD050C9407060C94220B28
S11300200C9411060C9468000C9468000C94AE0BAC
S11300300C94F8160C949F050C94B5050C941B06AF
S11300400C948E050C94770F0C9468000C94680043
S11300500C9468000C9468000C9468000C9468007C
S11300600C94AA050C9468000C9468000C94680025
S11300700C9468000C9468000C9468000C9468005C
S11300800C9468000C9468000C94680000081C1818
S1130090141011241FBECFEFD0E1DEBFCDBF11E09D
S11300A0A0E0B1E0EAE4F3E300E00BBF02C0079094
S11300B00D92A032B107D9F712E0A0E2B1E001C07D
S11300C01D92A83DB107E1F70E9443150C94A419B1
S11300D00C9400008FB7F894992708958FBF089562
S11300E0FC0182819927582F442781819927482B25
S11300F0592BCA01892F992786958695837090700C
S11301008230910559F08330910559F0892B19F407
S113011020E030E008C02CE93FEF05C022E030E0E9
S113012002C028E030E0CA0184E0989F812D99271D
S113013011248230910559F08330910559F0892BAF
S113014019F480E090E008C08CE99FEF05C082E0DC
S113015090E002C088E090E0280F391F2A5F3F4FEB
S1130160CF01820F931F0895282F9FB7F894662319
S113017049F0E82FFF27EA50FE4F8081882311F0D1
S113018021E006C0E22FFF27EA50FE4F608320E003
S1130190892F99278FBF822F99270895E82F8FB72A
S11301A0F894282F332790E0FF27EA50FE4F8081F0
S11301B0861709F491E02FBF892F99270895882382
S11301C011F06E9A08956E980895882311F06F9A2D
S11301D008956F98089580E00E94DF00BA9ABB9852
S11301E0B99AB89A6C9A80E00E94E5006B986A9874
S11301F081E00E94DF00709A8DB18C7F8DB90895E3
S11302000F931F93CF93DF93182F8FB7F894C82FB2
S1130210DD270C2F61E080E00E94B400882321F0E8
S1130220CFBF85E090E024C0809118018823A1F419
S113023080913001823081F409C082E080933001E2
S1130240109218010E94EB00B89AC09810931501FF
S113025080E00FBF99270CC080913001882369F397
S11302608FB7F89499271092F6018FBF81E0F1CFF0
S1130270DF91CF911F910F910895282F9FB7F89484
S1130280E82FFF27EA5AFE4F80818F3F81F4E091E7
S1130290D602E21771F40BC02093600204C0FF275A
S11302A0EA5AFE4F20832093D60220E007C025E0BF
S11302B005C0809160028F3F91F7EECF892F992777
S11302C08FBF822F992708951F93182F81E00E94D2
S11302D0DF001FB9779BFECF8FB199271F91089537
S11302E08F929F92AF92BF92CF92DF92EF92FF9242
S11302F00F931F93CF93DF938FB7F8949927C090F0
S1130300D102D090D2028090EF019090F001C09180
S1130310C501D091C60120913B0130913C01EAE036
S1130320AE2EB12CAC0EBD1E2A153B0508F45901A6
S11303308FBF7401EC0EFD1E86010C0F1D1F14C02F
S1130340C114D10419F0F801808101C080E00E9439
S113035064018114910411F0F701808321960894BB
S1130360E11CF11C0F5F1F4FC5010197C817D90786
S113037038F381E00E94E5009FB7F894C114D104DA
S113038031F0CC0EDD1EF60180818FB901C01FB89B
S1130390D093C601C093C501892F99278FBF80E0F0
S11303A090E0DF91CF911F910F91FF90EF90DF903C
S11303B0CF90BF90AF909F908F9008952FB7F894EF
S11303C0332750933C0140933B019093D202809396
S11303D0D1027093F0016093EF011092C601109264
S11303E0C5012FBF452B29F08FB10E9470019927B9
S11303F0089589E00E943D0180E090E008958FB760
S1130400F89499271092F8018FBF0895EF920F93F3
S11304101F93AE2D99E0899FF0011124E553FE4FFF
S113042040835183628373830483158326833783D4
S1130430A17080858E7F8A2B826080878DE00E94E8
S11304403D011F910F91EF9008957FB7F89462B723
S113045020913E0130913F01409140015091410172
S113046006B601FE0FC081B792B7280F311D411D9A
S1130470511D2F5F3F4F4F4F5F4F290F311D411DBE
S1130480511D04C0260F311D411D511D872F992771
S11304908FBFCA01B9010895AF92BF92CF92DF9284
S11304A0EF920F931F935B016C010E942502AB0135
S11304B0BC01F1E0EF2E9601850181E00E94060265
S11304C01F910F91EF90DF90CF90BF90AF90089560
S11304D09C018091DC0181FF03C080E090E00895DD
S11304E0413019F5A8E9B2E0FB0184E301900D92D3
S11304F08150E1F7A3E7B1E0FB0184E301900D92A1
S11305008150E1F73093380120933701E0910001E5
S1130510F0910101EE0FFF1FEE5FFE4F60817181CC
S1130520882799270E944C0202C0423019F081E0CA
S113053090E00895A3E7B1E0FB0184E301900D92FC
S11305408150E1F73093380120933701E0910001A5
S1130550F0910101EE0FFF1FEE5FFE4F608171818C
S1130560882799270E944C0281E090E008952F92F9
S11305703F924F925F926F927F928F929F92AF922F
S1130580BF92CF92DF92EF92FF920F931F93CF937C
S1130590DF93CDB7DEB729970FB6F894DEBF0FBE51
S11305A0CDBF6FB76983F8942090A9013090AA0158
S11305B04090AB015090AC016624772488248EE4EB
S11305C0A82E03E8B02ECC24DD24EE24FF2400E082
S11305D010E0222D332D442D552D662D772D882D99
S11305E090E00E9486172A833B834C835D836E834D
S11305F07F8388879987822E932EA42EB52E24017B
S1130600350100E20E948418A22EB32EC42ED52EEA
S1130610A301920156954795379527952A0D3B1DC1
S11306204C1D5D1D57FF05C05F772F5F3F4F4F4F38
S11306305F4F2093A9013093AA014093AB015093DB
S1130640AC01E9818E2F99278FBFCA01B901299680
S11306500FB6F894DEBF0FBECDBFDF91CF911F91CF
S11306600F91FF90EF90DF90CF90BF90AF909F904D
S11306708F907F906F905F904F903F902F90089550
S1130680DF92EF92FF920F931F938FB7F894282F66
S11306903327D22E91B782B746B7981711F041FF8E
S11306A002C02FBF6AC08091C4018823E1F10E9477
S11306B02502E090F201F090F3010091F401109111
S11306C0F501209150013091510140915201509116
S11306D053016E197F09800B910B6217730784070E
S11306E0950720F01092C40171E01EC02E0D3F1D2D
S11306F0401F511F80913E0190913F01A091400104
S1130700B0914101281B390B4A0B5B0B273E310585
S11307104105510540F4822F223010F070E005C0ED
S113072070E082E002C070E086EE682F615000B68F
S113073001FCFDCF82B7681709F46F5F20913E0179
S113074030913F014091400150914101DA01C901CA
S11307500196A11DB11D860F911DA11DB11D82170A
S11307609307A407B50710F4622F609561BFDFBE3D
S1130770772319F08CE00E943D011F910F91FF90A7
S1130780EF90DF900895AFB7F894BB27E1E0E093D2
S1130790C4016093F2017093F3018093F401909388
S11307A0F50120935001309351014093520150932D
S11307B05301AFBF0E94400308951F9380912F01FE
S11307C0882309F04BC0109115011F3F09F046C062
S11307D060E00E94CE00882309F440C081E0809349
S11307E00502809155018823E1F11092050285E00C
S11307F090E045C0923069F5C09A8091160120E0DE
S113080030E08F3F11F421E030E0232BE9F4109322
S113081018018F3F19F42FEF30E00DC0282F332734
S1130820F901EE54FE4F8081809316018F3F11F43D
S113083010931701108320936C0181E080933001A1
S11308408AE00E943D0105C0109318011092300106
S113085011C080913001882369F00FC081E090E0DD
S11308600EC08091180190913001882319F29230C2
S113087021F0EFCF80E00E94DF0080E090E01F9144
S1130880089580E88093540110926F0110929702AA
S113089010925F0210926B010895CF93DF93FC01D5
S11308A015A6DC019E96ED011B821A82198280E84E
S11308B086A7DF91CF9108951F93182F81E090E0D0
S11308C09093320180933101109255010E94DD030F
S11308D08FB7F894992710932B018FBF84E00E945F
S11308E03D011F9108958FB7F8946091C9017091EB
S11308F0CA012CB53DB506B602FE04C06F5F7F4F3A
S11309002CB53DB599278FBF88279927CB01772729
S1130910662744275527622B732B842B952B089528
S1130920EF92FF920F931F930E9473047B018C013B
S11309302091B3013091B4014091B5015091B601B9
S11309408091AE019091AF01A091B001B091B1013D
S1130950820F931FA41FB51FE216F30604071507A1
S113096030F082179307A407B50758F005C0821723
S11309709307A407B507E0F5E816F9060A071B076D
S1130980B8F59C01AD012E193F09400B510B2130E4
S113099060E8360760E0460760E0560768F180E0EB
S11309A090E8A0E0B0E0E80EF91E0A1F1B1FE092D9
S11309B0B301F092B4010093B5011093B60180E045
S11309C090E8AFEFBFEFE80EF91E0A1F1B1F20507F
S11309D03048404050402093AE013093AF014093E3
S11309E0B0015093B10120E030E840E050E014C081
S11309F020E030E040E050E08093B3019093B401F4
S1130A00A093B501B093B6011092AE011092AF015C
S1130A101092B0011092B101A901B7012CB53DB5F6
S1130A20C9018E199F0903968417950720F0B9010F
S1130A306D5F7F4F02C0640F751F6115710511F45E
S1130A4061E070E0615070407BBD6ABD80E186BFAB
S1130A5087B7806187BF1F910F91FF90EF90089532
S1130A600F931F930FB7F89411276093B3017093FA
S1130A70B4018093B5019093B6012093AE013093F5
S1130A80AF014093B0015093B1010E9490040FBF95
S1130A901F910F91089597B79F7D97BF90E296BFDE
S1130AA0882319F08EB5806402C08EB58F7B8EBD0D
S1130AB087B7806287BF80E090E00895AF92BF92CD
S1130AC0CF92DF92EF92FF920F931F93CF93DF9316
S1130AD0CDB7DEB728970FB6F894DEBF0FBECDBFF3
S1130AE020E070E0E0910001F091010132E14DE677
S1130AF05CE46FE4809101019E2F28960FB6F89470
S1130B00DEBF0FBECDBFDF91CF911F910F91FF903C
S1130B10EF90DF90CF90BF90AF9008951F920F9207
S1130B200FB60F9211248F9383B783BF00B600FCD6
S1130B30FDCF8F910F900FBE0F901F901895789452
S1130B401F920F920FB60F9211240F900FBE0F90A9
S1130B501F90189578941F920F920FB60F9211243C
S1130B600F900FBE0F901F90189578941F920F92BC
S1130B700FB60F9211242F933F938F939F932FB708
S1130B80F89433278091C9019091CA0101969093FA
S1130B90CA018093C9012FBF9F918F913F912F91DB
S1130BA00F900FBE0F901F9018951F920F920FB6C3
S1130BB00F9211240F900FBE0F901F9018951F9243
S1130BC00F920FB60F9211240F900FBE0F901F902B
S1130BD018951F920F920FB60F9211240F900FBE0B
S1130BE00F901F9018951F920F920FB60F92112419
S1130BF00F900FBE0F901F9018951F920F920FB673
S1130C000F9211240F900FBE0F901F9018951F92F2
S1130C100F920FB60F9211240F900FBE0F901F90DA
S1130C2018951F920F920FB60F9211240F900FBEBA
S1130C300F901F9018951F920F920FB60F921124C8
S1130C402F933F934F935F936F937F938F939F93D0
S1130C50AF93BF93EF93FF9383B783BF00B600FCBA
S1130C60FDCF81B799270196AA27BB2720913E0182
S1130C7030913F014091400150914101280F391FAB
S1130C804A1F5B1F20933E0130933F014093400174
S1130C905093410178940E944003FF91EF91BF91DA
S1130CA0AF919F918F917F916F915F914F913F9100
S1130CB02F910F900FBE0F901F9018951F93CF93F5
S1130CC0DF939FB7F894C92FDD271C2F909115014E
S1130CD0981721F0CFBF81E090E03AC08FEF809366
S1130CE0150130912F013323F1F48FB7F89499272C
S1130CF01092F6018FBF0E94DD03CFBF11C0209375
S1130D00150181E090E002C0880F991F4A95E2F72F
S1130D108095382330932F0188E00E943D011FBF46
S1130D2080E090E015C080E065E0E32FFF270E949B
S1130D300719292F492F5527CF01042E02C0959555
S1130D4087950A94E2F780FDDACF822F8F5FEFCF89
S1130D50DF91CF911F9108950F931F93182F0FB711
S1130D60F89461E080E00E94B400882371F5109348
S1130D701501809118018823A9F5809130018230F2
S1130D8089F588E00CC00E94EB0080913001882333
S1130D9049F481E08093300110926C018AE00E9452
S1130DA03D012AC08091B2018F3F31F5E0911701D6
S1130DB0EE2311F11CC01092160104C0FF27EE545B
S1130DC0FE4F10821092170117C081E090E002C01C
S1130DD0880F991F1A95E2F720912F01282B209351
S1130DE02F010AC0809130018823E1F6CCCF809195
S1130DF016018F3F19F7DFCF802F99278FBF80E02F
S1130E0090E01F910F9108951F9383E00E940001C9
S1130E109927182F882319F083E00E94AC06812FAC
S1130E2099271F91089561E081E00E94B40088230E
S1130E30E9F48FB7F894282F332780912C019091EF
S1130E402D01892B11F02FBF20C081E090E09093F9
S1130E502D0180932C012FBFDD9A0E94730424E19D
S1130E6030E040E050E00E9430050FC062E081E0D5
S1130E700E94CE00882319F089E090E0089561E093
S1130E8081E00E94CE00882319F080E090E008956C
S1130E9085E090E00895FF920F931F93CF93DF9323
S1130EA0F82E8B018FB7F894C82FDD2760E080E01F
S1130EB00E94CE00882321F0CFBF80E090E00CC0D8
S1130EC0CFBF8F2D0E946401812F99270E94640156
S1130ED0802F0E9464019927DF91CF911F910F9178
S1130EE0FF9008951F931FB7F89480916A01882397
S1130EF019F460E070E009C060E08091D0028823BA
S1130F0009F461E081E068277727809172018823E2
S1130F1019F480E090E00AC090E08091FB018823FE
S1130F2009F491E081E09827892F9927762F662785
S1130F30770F770F770FE4E0880F991FEA95E1F7B1
S1130F40826E9262682B792B81E10E944B07812F7C
S1130F5099278FBF1F9108958FB7F89499276091AF
S1130F6004028FBF85E0689FB0011124625D7E4F4B
S1130F70706488E10E944B070895EF92FF921F93DB
S1130F80CF93DF93E090A701F090A801F70182A529
S1130F909927182F882309F41FE1C09880916901CB
S1130FA0811749F0612F77276F717070606E7068D8
S1130FB085E10E944B0710936901F70110818FB7F7
S1130FC0F894C82FDD2760E080E00E94CE008823DB
S1130FD011F0CFBF12C0CFBF8EE390E09093BC015D
S1130FE08093BB018EE30E9464011150412F552769
S1130FF060E070E0C7010E94DE01DF91CF911F9194
S1131000FF90EF9008950F931F93CF93DF93EC011C
S11310100FB7F89411270E947000FC018FE38083BE
S11310200FBF1092CE021092CD0261E082E00E94C6
S1131030B400882319F085E090E072C08091060224
S11310408F5F8093060281508B838FB7F894082FAB
S1131050112762E081E00E94CE00882329F40FBFAB
S11310600E94FF0181E05BC08FB7F894992724E0C8
S11310702093F7018FBFD093C201C093C1010FBF6A
S1131080FE013196818129819927982F882733275A
S1131090822B932B80729C7C8983892F992781834F
S11310A02981982F882733272164822B932B8983C6
S11310B0892F992781831CA618A619A619AA18AAEC
S11310C01FA680E88EA761E06093FA014091C101F8
S11310D05091C2018FB7F894282F332780913101A2
S11310E0909132018830910511F0019711F02FBFD2
S11310F015C082E090E090933201809331016093B7
S1131100D7025093A8014093A70110923D012FBF2D
S11311100E940407882311F40E94BD0780E09927E8
S1131120DF91CF911F910F910895CF93DF93DA014F
S1131130422F2D3118F082E090E05EC0ED018B87E4
S11311406E83872F99278F832FB7F8943327809145
S11311507001909171012FBFFD018483892F99271C
S113116085832FB7F89433278091190190911A0140
S11311702FBF8887892F9927898731968181298173
S11311809927982F8827332720643868822B932B3C
S11311908983892F99278183435F4C934D50809194
S11311A01C01882359F010921C01642FCD010E9468
S11311B003089927282F8823A9F417C0842F992777
S11311C09093C0018093BF01B0933601A093350181
S11311D08EE00E943D0180911C01882349F489E03E
S11311E090E00AC08FEF80931C01822F992704C0DE
S11311F01092AD0180E090E0DF91CF9108951092BC
S11312001401E091C701F091C801309721F0809159
S1131210CC0280FF08C081E080931401089581E02E
S11312200E943D01089520812D503327678177273F
S1131230762F662786819927682B792BAF018385C2
S11312400E949508882359F70895AF92BF92CF92D0
S1131250DF92EF92FF920F931F93CF93DF935B0183
S11312606C01C0E0D0E0EBECF1E0608561FFA1C06F
S11312702081318142815381E480F5800681178188
S1131280D601C501821B930BA40BB50B8E159F05CC
S1131290A007B10708F48DC060FF03C06D7F6087AD
S11312A008C02E0D3F1D401F511F208331834283F0
S11312B05383C23009F449C0C33009F472C0C13049
S11312C009F07DC020913701309138018091C3012C
S11312D0882309F074C043E751E020937901632F18
S11312E0772760937A018AE080937E018091C70119
S11312F09091C801892B09F062C05093C8014093B2
S1131300C70185E180937301809114018823C9F09A
S1131310762F6627822F9927682B792B1092140138
S113132028E08AE00E9495089927282F882349F00D
S113133081E0809314011092C8011092C701222306
S1131340F1F581E08093C3013AC00E94B702109284
S11313502A0121E020936F02209100012093700262
S113136060937402672F7727609373028091020160
S11313709091030180937602892F992780937502B7
S113138041E063E672E08FEF9FEF0E946802809174
S1131390020190910301019690930301809302014D
S11313A00EC041E068E972E08FEF9FEF0E9468028F
S11313B006C021963996C430D10509F056CF8DE088
S11313C00E943D01DF91CF911F910F91FF90EF900B
S11313D0DF90CF90BF90AF900895CF92DF92EF92BD
S11313E0FF920F931F93CF93DF938C01F62E6A0124
S11313F0E22E8FB7F894C82FDD2760E080E00E94CA
S1131400CE00882321F0CFBF80E090E01EC0CFBF84
S11314100F0D111D802F80680E946401F82E16950F
S11314200795802F807C0E9464010E2D0AC0EE2D4A
S1131430FF27E01BF109EC0DFD1D80810E94640172
S113144001500023A1F78F2D9927DF91CF911F9190
S11314500F91FF90EF90DF90CF900895CF93DF939B
S1131460CDB7DEB72C970FB6F894DEBF0FBECDBF55
S11314708FB7F894282FAE014F5F5F4FDA01ECEF7E
S1131480F1E088E001900D928150E1F780917001C4
S1131490909171018987892F99278A878091B70153
S11314A09091B8018B87892F99278C872FBF2CE0C7
S11314B060E080E691E00E94ED092C960FB6F89466
S11314C0DEBF0FBECDBFDF91CF9108951F93CF93A1
S11314D0DF93182F8FB7F894C82FDD2760E080E0E2
S11314E00E94CE00882321F0CFBF80E090E005C0A9
S11314F0CFBF812F0E9464019927DF91CF911F9163
S11315000895EF92FF920F931F93CF93DF93182FB9
S11315107B01042F8FB7F894C82FDD2760E080E0AB
S11315200E94CE00882321F0CFBF80E090E014C059
S1131530CFBF1064812F99279093BC018093BB0186
S11315400E946401182F402F5527B70180E090E0D6
S11315500E94DE01812F9927DF91CF911F910F9176
S1131560FF90EF900895C0986091390170913A010D
S113157041E08FE30E94810A089582E090E0909315
S113158066018093650181E080936F0120E030E083
S113159080911501843011F421E030E0232B29F4EB
S11315A084E00E940001882319F40E94B30A08957C
S11315B084E00E94AC0608951F93CF93DF938FB706
S11315C0F894C82FDD271C2F809165019091660146
S11315D0892B29F484E00E945E06CFBF1EC01092BE
S11315E06F0180916B01882311F0B79904C00E99A3
S11315F008C0882319F0815080936B010E94BD0AB2
S11316000BC081E090E09093660180936501109295
S11316106B0184E00E945E061FBFDF91CF911F9192
S113162008950E944104C09AC09888E00E94660A06
S113163088E00E94660AC09A84E00E945E060E94C6
S1131640DC0A08951F920F920FB60F9211242F9364
S11316503F934F935F936F937F938F939F93AF9336
S1131660BF93EF93FF938091650190916601019779
S113167049F482E090E090936601809365010E94B2
S1131680BD0A05C080916B018F5F80936B01FF9150
S1131690EF91BF91AF919F918F917F916F915F91E6
S11316A04F913F912F910F900FBE0F901F9018955F
S11316B0EF920F931F938357914099F41092C301B3
S11316C080917F01813069F40E942502AB01BC0145
S11316D0E1E0EE2E08EE13E020E030E083E00E942B
S11316E006021F910F91EF9008951F93CF93DF93FC
S11316F0142F80911401882389F4C091C701D091DB
S1131700C801C617D70751F41092C8011092C70137
S11317100E94FF08612FCE010E94580BDF91CF91E8
S11317201F910895AF92BF92CF92DF92EF920F93E1
S11317301F935B016C010E942502AB01BC01F1E027
S1131740EF2E9601850182E00E9406021F910F91FF
S1131750EF90DF90CF90BF90AF90089578941F9250
S11317600F920FB60F9211242F923F924F925F92D5
S11317706F927F928F929F92AF92BF92CF92DF929D
S1131780EF92FF920F931F932F933F934F935F9387
S11317906F937F938F939F93AF93BF93CF93DF9375
S11317A0EF93FF93C6B5D7B58FB7F894282E0E9450
S11317B073049B012C1B3D0B442755272B013C0133
S11317C0421A530A640A750A8091310190913201D8
S11317D08530910521F0069709F0E0C0BFC086E08E
S11317E090E0909332018093310131E0332E3092B6
S11317F06E011092330180E00E944B05E091A70135
S1131800F091A80141AABB27A72D962D852D80AB69
S1131810C301AA27BB2787A7872D9927AA27BB27F8
S113182086A7E091A701F091A80185A5882309F472
S113183084C06081655077274F01860E971EF4019E
S11318402081E1808281A3809927AA27BB27BA2F10
S1131850A92F982F8827332744275527522F442709
S113186033272227FF24002711278701FF24EE2492
S11318702E293F29402B512BBB24CC24DD242A299B
S11318803B294C295D29822B932BA42BB52B84193E
S11318909509A609B7098383292F3A2F4B2F55277A
S11318A022839D014427552721838B2F9927AA271B
S11318B0BB278083C09824E0A40180E090E00E94CC
S11318C0ED09C09AF4012081E1808281A3809927E7
S11318D0AA27BB27BA2FA92F982F88273327442755
S11318E05527522F442733272227FF240027112767
S11318F08701FF24EE242E293F29402B512BBB24A2
S1131900CC24DD242A293B294C295D29822B932BC5
S1131910A42BB52B840D951DA61DB71D8383292FDC
S11319203A2F4B2F552722839D0144275527218386
S11319308B2F9927AA27BB278083E091A701F091D9
S1131940A801818185FF02C03092550183E00E9485
S11319505E0687B78F7E87BF84997AC010926E0126
S113196081E00E944B05E091A701F091A8018181DB
S113197085FF0FC087E090E090933201809331019E
S11319800E94730420E031E040E050E00E94300502
S113199003C080E00E945C04849B5AC080913301A0
S11319A0882391F580916E01882371F511E01093DD
S11319B06E010E944B0580B320915F02283098F499
S11319C0E0919702E20FFF27E770F070EE0FFF1F20
S11319D0EE0FFF1FE55FFD4F4082518262827382EA
S11319E02F5F20935F0210933301D093BE01C09305
S11319F0BD0184992DC09927A4E096958795AA9551
S1131A00E1F7182F117001C010E080916E01813050
S1131A10F9F410926E010E944B05109233011123C8
S1131A20B9F48091BD019091BE01C81BD90B2A97CE
S1131A3078F480915F02882319F0815080935F02CB
S1131A408091A7019091A801009711F00E944D0484
S1131A502FBEFF91EF91DF91CF91BF91AF919F91F5
S1131A608F917F916F915F914F913F912F911F9132
S1131A700F91FF90EF90DF90CF90BF90AF909F9029
S1131A808F907F906F905F904F903F902F900F902A
S1131A900FBE0F901F901895CF92DF92EF92FF9296
S1131AA00F931F93CFB6F894DD240E94B702DC0194
S1131AB0CB0166E470E00E9413194BE0E42EF12C94
S1131AC0E80EF91EF092D402E092D3020E9473044D
S1131AD000271127A80197010E943005CFBE1F914E
S1131AE00F91FF90EF90DF90CF9008951F93CF93C5
S1131AF0DF938FB7F894C82FDD271C2F8091310115
S1131B00909132010897C9F489E00E94660A83E043
S1131B100E945E06C09A81E090E090933201809327
S1131B2031018FB7F894992723E020932B018FBFBD
S1131B3084E00E943D01CFBF30C0C0988091D7029D
S1131B40882311F085E001C084E00E94660A83FDC9
S1131B5009C080E00E94660A83FF04C085E090E02B
S1131B6020E003C083E090E021E090933201809371
S1131B703101C09A1FBF222341F010923D0183E03E
S1131B800E945E060E944C0D08C00E94730420E46B
S1131B9031E040E050E00E943005DF91CF911F9189
S1131BA00895EF92FF920F931F93CF93DF938B01CE
S1131BB08091BB019091BC0186FF40C18F7B8F3324
S1131BC009F08EC1C0913901D0913A0158815093E6
S1131BD0670180916501909166018530910509F452
S1131BE043C08630910509F48AC0029709F01FC1E9
S1131BF085E090E0909366018093650140915401E3
S1131C00852F99270196242F3327281739074CF15C
S1131C10B79906C00E9904C0451B41504093540126
S1131C20409167014A32E8F44423A1F0BE016F5F9A
S1131C307F4F483018F047E050E007C086E090E05E
S1131C409093660180936501552780E090E00E949F
S1131C50DE0146C110926F01C09A84E00E945E06C4
S1131C60E3C00E94110B3CC186E090E090936601B2
S1131C708093650180917201882309F439C08091B1
S1131C80FB018823A9F5898185FF32C08F814E81AC
S1131C902FB7F89433276091B7017091B8012FBF23
S1131CA09927982F88275527842B952B86179707D4
S1131CB059F08F812E819927982F88273327822BDB
S1131CC0932B8F5F9F4FA1F489818770813081F4BA
S1131CD0C09AC0988AE00E94660AC09AC09840914F
S1131CE0670147502896BE018FE30E94810AF8C01D
S1131CF040916701475055272896BE01A6CFC09A48
S1131D0080916B01882339F484E00E945E068091FF
S1131D106B01882311F0B7990AC00E9B08C09091FB
S1131D205F02992321F0809167018B3038F4809110
S1131D30390190913A010E944D043DC0913001F562
S1131D40E0919702FF27EE0FFF1FEE0FFF1FE55FE5
S1131D50FD4F2081318142815381E0913901F0911D
S1131D603A0121ABBB27A52F942F832F80ABCA0147
S1131D70AA27BB2787A7252F33274427552726A71C
S1131D80809197029927019668E070E00E942719D4
S1131D908093970280915F02815080935F02882331
S1131DA051F08091390190913A010E944D041092B2
S1131DB0970210925F0280916701FE01E80FF11D06
S1131DC0808187FF31C0012B79F169816770E091CF
S1131DD03901F0913A01623019F5A091A701B0914F
S1131DE0A801109709F18091310190913201079770
S1131DF0D9F4ED019B8183819817B1F487B78F7E65
S1131E0087BF908181E08CA7E90FF11D8291319603
S1131E1088A780818F7789A780E00E945C0404C032
S1131E20613011F48BE02AC00E94DC0A59C0109280
S1131E306F01C09A84E00E945E0652C08E3309F09E
S1131E404FC0C09A80913101909132010897C9F432
S1131E50C09889E00E94660AC09A83E00E945E06E8
S1131E6081E090E090933201809331018FB7F89430
S1131E70992723E020932B018FBF84E00E943D012A
S1131E802FC08091D702882349F484E090E0909396
S1131E903201809331010E94760D22C083E00E94BA
S1131EA05E0683E090E090933201809331010E94BA
S1131EB0B702DC01CB0166E371E00E9413195BE019
S1131EC0E52EF12CE80EF91EF0924F01E0924E013E
S1131ED00E94730400271127A80197010E9430056E
S1131EE0DF91CF911F910F91FF90EF9008951F9272
S1131EF00F920FB60F9211242F933F934F935F933A
S1131F006F937F938F939F93AF93BF93EF93FF93BD
S1131F102FB1E091EF01F091F001309739F0809109
S1131F20C5019091C601E80FF91F20838091C50176
S1131F309091C60101969093C6018093C50180E0FB
S1131F400E94E50040913B0150913C018091C50104
S1131F509091C6018417950718F40E9470011CC063
S1131F606091EF017091F0018091D1029091D202C1
S1131F701092F0011092EF011092D2021092D1024D
S1131F8010923C0110923B011092C6011092C501BF
S1131F902FB120E00E94D10DFF91EF91BF91AF913D
S1131FA09F918F917F916F915F914F913F912F916D
S1131FB00F900FBE0F901F901895AF92BF92CF92C3
S1131FC0DF92EF92FF920F931F93CF93DF93CDB7DE
S1131FD0DEB7A8970FB6F894DEBF0FBECDBF87302B
S1131FE009F43EC1883098F4833009F4C0C08430C9
S1131FF038F4813009F44BC0823008F05EC01DC053
S1132000853009F40BC1863008F023C1B6C08B308B
S113201009F453C28C3038F4893009F417C28A3079
S113202008F037C256C18D3009F481C48D3008F4EC
S11320304BC48E3009F0F9C4D2C48091CC028823F9
S113204009F4F3C490E011E02091CC02812F8223A3
S1132050C1F0E92FFF27EE0FFF1FE953FE4F408128
S1132060518111821082812F809528232093CC02E4
S1132070992339F463E0CA010E94580B110F91E0CF
S1132080E3CF9F5F983008F0D0C4110FDDCF1091DB
S11320901401E12FFF27EE0FFF1FE953FE4FE080ED
S11320A0F180118210820E94FF08112309F0BDC43F
S11320B061E0C7010E94580BB8C40FB7F894112708
S11320C081E00E944B0541E0E42EF12CF0923201B4
S11320D0E09231011092330110925501109269017E
S11320E00FBF0FB7F89411270E944104F0926601C4
S11320F0E092650110926F0189B78F7B89BF80E4FC
S113210088BF8AB780628ABF8AB78F7E8ABF89B741
S1132110806489BF0FBF8FB7F894082F112780916F
S11321202C0190912D01049719F483E00E94660A12
S11321300FBF0FB7F8941127C09A80E00E945E0683
S11321400FBF8FB7F894992722E02093F7018FBF30
S113215080910001909101010197059708F065C4F1
S113216060ED77E080E090E00E94920B5EC48FB750
S1132170F89499271092F70171C08FB7F8949927B2
S1132180F0902B018FBF63E081E00E94CE00882392
S113219059F10FB7F89411271092320110923101BE
S11321A087B78F7E87BF87B78F7D87BF83E00E9405
S11321B05E06C09A0FBF0FB7F894112710926601FC
S11321C0109265010E944104C09A89B78F7B89BF30
S11321D00FBF10922D0110922C01DE98DD98DE9A2B
S11321E083E00E943D0107C08FB7F894992722E04D
S11321F02093F7018FBF0091C1011091C2010E9489
S1132200FF018091CD029091CE02892B09F00DC47B
S11322108FEF80931C014F2DB801FFC38FB7F89443
S1132220282F3327122F8091D502882309F581E0C6
S11322308093D50280912C0190912D01049721F473
S113224081E00E94AC0603C086E00E943D011FBFEE
S1132250ECC38FB7F89499271092D5028FBFE5C3CA
S11322608FB7F894282F332780912E01882311F0FB
S11322702FBFDBC32FBF80B3992736E09695879590
S11322803A95E1F7182F11709091B9018091BA0134
S11322908917D9F01917C9F484E090E090932D01BF
S11322A080932C018FB7F894992721E020932E0175
S11322B08FBF60E070E08DE10E944B070E942E0A00
S11322C0C09AC09882E00E943D011093BA0187E051
S11322D06DC08FB7F8949927109115018FBF1230F4
S11322E009F467C0133030F4112359F0113009F0A8
S11322F09CC348C0133009F476C0143009F095C368
S1132300A2C0C0988FB7F894082F112780912C0190
S113231090912D010297A1F583E090E090932D0117
S113232080932C0168E170E08DE10E944B0781E00D
S11323308093B90110922E0180B3992726E09695D7
S113234087952A95E1F7817090708093BA0187E0B0
S11323500E943D0181E00E94660A6FE772E08CE111
S11323600E944B070E94AC070E94720766E57AE25E
S113237087E10E944B076FEF70E885E10E944B07ED
S11323800FBF53C3C09886E00E94660A0E94AC0740
S11323900E9472070E942E0AC09AC09883E00E948D
S11323A0660AC09A81E00E945E0686E00E943D01B2
S11323B03CC3C0988FB7F894082F112760E080E0E1
S11323C00E94CE00882311F00FBF0AC00FBF83E51F
S11323D00E94640180E00E94640180E00E94640124
S11323E0C09A82E02DC08FB7F894992720913101CB
S11323F08FBF243039F0283041F0223001F50E949B
S1132400BD0713C30E94760D10C3C09889E00E94D3
S1132410660AC09A83E00E945E068FB7F8949927F3
S113242021E030E030933201209331018FBF8FB728
S1132430F894992710932B018FBF84E0B7CF83E0E2
S11324400E945E06F2C20E94B30AEFC20FB7F8946C
S1132450112740913B0150913C016091EF01709133
S1132460F0018091D1029091D2021092F001109269
S1132470EF011092D2021092D10210923C011092FC
S11324803B011092C6011092C50120E00E94D10DBB
S113249077CF2FB7F894332780916C01809318017C
S11324A082E0809330012FBF80911801882309F0C6
S11324B0BCC2B89AC09888E079CFA0913901B09194
S11324C03A01DC909D012D0D311DF9018081881F99
S11324D08827881FFD0183A7F90180818F77FD017B
S11324E081A721503040F9018081FD0180A7A0918E
S11324F03901B0913A01FD0132818FB7F8949927DF
S113250020916A018FBF222309F490C0832F992759
S113251096958795969587958370907082309105EE
S113252041F5878146812FB7F89433276091B7012D
S11325307091B8012FBF9927982F88275527842B8E
S1132540952B8617970719F481E090E06CC0FD0184
S11325508781268140E050E09927982F88273327E8
S1132560822B932B8F5F9F4F11F441E050E0CA01FF
S11325705AC0039709F09FC19E012F5F3F4F4CEF54
S113258051E088E0FA010190AF01F90101929F0145
S11325908150C1F79E012F5D3F4FAE014F5F5F4FEA
S11325A088E0FA010190AF01F90101929F01815085
S11325B0C1F79E01275F3F4FAE014F5D5F4F88E03B
S11325C0FA010190AF01F90101929F018150C1F715
S11325D09E012F5E3F4FAE01475F5F4F88E0FA01D7
S11325E00190AF01F90101929F018150C1F79E0151
S11325F0275E3F4FAE014F5E5F4F88E0FA010190C6
S1132600AF01F90101929F018150C1F748E050E008
S1132610BE01675E7F4FCD0106960E949019892BFB
S113262009F049C103C0882309F445C1FCE0FD1544
S113263008F041C1E0903901F0903A01F70122819C
S1132640822F992736E0969587953A95E1F7039777
S113265019F468E070E002C062E070E0822F99270C
S1132660969587959695879583709070039719F43E
S113267088E090E002C082E090E026E030E0E20EE4
S1132680F31E40E050E020E030E0F701E80FF91FCE
S11326908AEF9FEFE80EF91E05C08191480F511D86
S11326A02F5F3F4F26173707C4F3F70163818FEF7E
S11326B08093CF028FB7F894782F20E030E0E2E4E3
S11326C0F1E0808191818417950731F48281861726
S11326D009F4EAC02093CF022F5F3F4F3396243092
S11326E0310579F77FBF9091CF023FB7F8949F3FB0
S11326F021F080913401891799F420913401822FBB
S11327009927FC01EE0FFF1FE80FF91FEE5BFE4F48
S11327105183408362832F5F2370209334010CC064
S1132720892F9927FC01EE0FFF1FE80FF91FEE5BBD
S1132730FE4F518340836283832F99278FBF0FB746
S1132740F8941127C7010E947000FC0190810FBF0B
S1132750F70183A5882309F4AAC09F3309F0A7C011
S1132760878146812FB7F8943327609119017091BE
S11327701A012FBF9927982F88275527842B952B2B
S11327808617970761F0878126819927982F8827D4
S11327903327822B932B8F5F9F4F09F088C0F7015B
S11327A083858A3009F083C0F5E1DF1609F07FC024
S11327B0B701645F7F4F2091000130910101C9018D
S11327C00197059770F5F7018485823051F54289A8
S11327D083895527542F44279927482B592B8091B7
S11327E0AA029927982F88272091AB023327822B9E
S11327F0932B4817590709F059C080912A0188235F
S113280009F054C08091EE018D7F8093EE0181E048
S113281080932A0160ED77E080E090E00E94920BC3
S113282045C0C9010697029768F4FB018081813095
S113283031F4228341E0B70188E090E032C0FB012B
S113284083812CC0FB018181A82FBB27868127812E
S1132850AA0FBB1FA25EBE4F9927582F44273327C8
S1132860422B532B8D919C9111978417950710F44B
S11328704D935C9382E0FB0180838181838388E0B4
S11328808183868127819927982F88273327822B54
S1132890932B8783892F99278683828142E0B7010E
S11328A099270E94680202C07FBF01C07801F0929C
S11328B03A01E09239018FB7F894992710926F0189
S11328C08FBF0E94DC0AB1C080916801882361F542
S11328D020910702309108024091090250910A02A6
S11328E0EFB7F894FF276091F2017091F3018091A2
S11328F0F4019091F501E0905001F09051010091A4
S11329005201109153016E0D7F1D801F911FEFBF67
S113291020930702309308024093090250930A025D
S1132920109268010E94C3030E94250243C00E94C2
S113293025025B016C018FB7F89499271092C401AA
S11329408FBF8FEFE82E8FEFF82E8FEF082F8FE7D2
S1132950182F60E0EBECF1E0808581FF1CC08081E2
S11329609181A281B381A6019501281B390B4A0BE1
S11329705B0BDA01C9012481358146815781281B0B
S1132980390B4A0B5B0B2E153F05400751071CF40E
S113299079018A0161E0399631E0EF3EF307E1F60F
S11329A0662309F442C01E141F04100611062CF0FD
S11329B0C601B5010E94250938C0E0920702F092D1
S11329C008020093090210930A0281E080936801CF
S11329D0A8019701C601B5010E94C30326C09091C6
S11329E0AD0180911C01981701F190931C0199236A
S11329F0C9F400913501109136016091BF01C801FD
S1132A000E940308482F5527442379F08FEF8093C1
S1132A101C016091350170913601F80183850E9493
S1132A20750B03C08FEF80931C01A8960FB6F89422
S1132A30DEBF0FBECDBFDF91CF911F910F91FF90ED
S1132A40EF90DF90CF90BF90AF9008958091600297
S1132A508F3FB1F0282F3327F901EA5AFE4F8081C6
S1132A60809360028F3F11F48093D6028FEF8083AE
S1132A702F3F31F0822F0E94DD0F81E090E0089516
S1132A8080E090E008951F93CF93DF93CDB7DEB736
S1132A90E0970FB6F894DEBF0FBECDBF1FB7F89412
S1132AA04FE050E06FEF70E086E591E00E949D19E1
S1132AB08FEF809360028093D60281E08EBD88E020
S1132AC080BF83E083BF8CB59DB54AE72CB53DB587
S1132AD02817390708F44150442311F0C901F6CFEF
S1132AE092B782B78917E9F32CB53DB592B782B78F
S1132AF08917E9F38CB59DB5821B930B409675E05D
S1132B00969587957A95E1F7909362028093610296
S1132B1013BE83B78EBD8EB580BF12BE1DBC1CBC58
S1132B208FEF86BF86B780937C0080B79927877024
S1132B309070892BD1F7D29AD19AD09ADA9AD99AED
S1132B40D89A15BA8FEF84BBD498DC981DBC1CBCF2
S1132B5087B7846087BF8EB5887F84608EBD0E94EE
S1132B6026158823E1F78FEF80936D01E2E4F1E00D
S1132B708FEF9FEF918380831282339621E0EE34AE
S1132B80F207C1F70E94B702609306028091000128
S1132B90909101010196AA27BB278093A9019093E4
S1132BA0AA01A093AB01B093AC0180B7886080BF49
S1132BB08BE083BF86EE81BF87B7826087BF0E94A8
S1132BC040038BE292E090933A01809339018E980E
S1132BD0B89A8C988FEF8093B2011092F6011092FC
S1132BE0F7011092F8011092F901B89AD69AD59A81
S1132BF08FB7F89499272091190130911A018FBF4A
S1132C003093B8012093B7010E945E0529A73AA723
S1132C104BA75CA76DA77EA78FA798ABDE01919603
S1132C20FE01B99688E001900D928150E1F7DE0132
S1132C305196FE01B19688E001900D928150E1F722
S1132C40DE015996FE01719688E001900D92815043
S1132C50E1F7ACEFB1E0FE01799688E001900D92C6
S1132C608150E1F780911B01992790937101809322
S1132C7070018FE18093F1018AE1809304020E9444
S1132C805E0529A73AA74BA75CA76DA77EA78FA7C8
S1132C9098ABDE019196FE01B99688E001900D9201
S1132CA08150E1F7DE011196FE01B19688E00190B2
S1132CB00D928150E1F7DE011996FE01319688E00C
S1132CC001900D928150E1F7ACEFB1E0FE0139962D
S1132CD088E001900D928150E1F7ACEFB1E0FD0185
S1132CE037969C9180818D939083319781E0EF3F5B
S1132CF0F807B9F781E080936A011092D0028093BB
S1132D0072011092FB010E9426158823E1F7812F9E
S1132D1099278FBF78940E9413078FB7F894482F90
S1132D2055274BC087B7992783709070892B19F466
S1132D30E5E0F0E013C080B7992787709070892B85
S1132D40D1F781B792B7891B8C3030F082B7853FB9
S1132D5018F4E3E0F0E002C0E2E0F0E087B7887B3B
S1132D60C1F480917D008B7FA1F46E9912C08AB169
S1132D7090919A00892B887161F48091740082FD8E
S1132D8008C0379B03C081E090E005C085E090E077
S1132D9002C080E090E025B78E1708F4E82FFF27E3
S1132DA0E457FF4FE491237E2062E22BE5BF789441
S1132DB08895F89485B78F7D85BF809160028F3F99
S1132DC009F4B0CF282F3327F901EA5AFE4F808146
S1132DD0809360028F3F11F48093D6028FEF80833B
S1132DE02F3F09F49FCF4FBF822F0E94DD0F95CF55
S1132DF078941F920F920FB60F9211241F932F9362
S1132E003F934F935F936F937F938F939F93AF936E
S1132E10BF93EF93FF9387B78F7E87BF78941FB7D5
S1132E20F8948091AE019091AF01A091B001B0915E
S1132E30B1010097A105B10509F051C0809131019C
S1132E40909132018530910561F18630910530F41D
S1132E508330910549F0049781F51AC087309105B4
S1132E60F1F0089751F514C0869B0FC084E090E000
S1132E7090933201809331010E94730427E030E083
S1132E8040E050E00E94300518C00E944C0D15C06F
S1132E900E940407882389F40E94760D0EC080E006
S1132EA00AC089E00E94660A81E00E944B0583E023
S1132EB00E945E0687E00E945C0480912C01909140
S1132EC02D01019771F482E090E090932D0180939D
S1132ED02C01DE98DE9A80E00E94AC0602C00E94BB
S1132EE09004812F99278FBFFF91EF91BF91AF91EC
S1132EF09F918F917F916F915F914F913F912F910E
S1132F001F910F900FBE0F901F901895ACE2B0E088
S1132F10ECE8F7E10C945919222E332E442E552E49
S1132F20662E772E882E992EFE013196A8E01192F6
S1132F30AA95E9F729823A824B825C826D827E826D
S1132F408F829886FE013996B8E01192BA95E9F716
S1132F50A986BA86CB86DC86ED86FE860F87188B1B
S1132F6089819A81AB81BC8189A79AA7ABA7BCA7A9
S1132F707C018D018FEF9FEFA0E0B0E0E822F92201
S1132F800A231B2389A59AA5ABA5BCA51D0144242E
S1132F90552489859A85AB85BC858DA39EA3AFA353
S1132FA0B8A75C016D018FEF9FEFA0E0B0E0A8220D
S1132FB0B922CA22DB228DA19EA1AFA1B8A53D01F1
S1132FC088249924C801B701A60195010E943A19E1
S1132FD069A37AA38BA39CA3C801B701A40193019D
S1132FE00E943A197B018C01C201B101A60195012D
S1132FF00E943A195B016C01C201B101A401930161
S11330000E943A193B014C01EA0CFB1C0C1D1D1DCE
S113301089A19AA1ABA1BCA19D01442755272E0DDE
S11330203F1D401F511F2A153B054C055D0540F40B
S113303080E090E0A1E0B0E0680E791E8A1E9B1E3D
S1133040CA01AA27BB27860D971DA81DB91D8D8F00
S11330509E8FAF8FB8A3A9013327222789A19AA1F4
S1133060ABA1BCA1A070B070280F391F4A1F5B1F11
S1133070298F3A8F4B8F5C8FA98CBA8CCB8CDC8CCC
S1133080ED8CFE8C0F8D18A1FE01719698E01192C3
S11330909A95E9F7ED8AFE8A0F8B188F2D813E8170
S11330A04F8158856DA17EA18FA198A50E943A19E0
S11330B03B014C012D853E854F85588969A57AA52C
S11330C08BA59CA50E943A192D893E894F89588D5C
S11330D0260F371F481F591F260D371D481D591D20
S11330E02D8B3E8B4F8B588F6D887E888F88988C64
S11330F02A2D3B2D4C2D5D2D662D772D882D992D58
S1133100E2E1AC960C947519A0E1B0E0EAE8F8E1CC
S11331100C945919222E332E442E552E662E772EBA
S1133120882E992E002309F466C088E0FE013196AA
S113313011928A95E9F729833A834B835C836D83E3
S11331407E838F829887E0E2E01B1E16CCF52D81EA
S11331503E814F815885602F772767FD7095DA018E
S1133160C901062E04C0B695A795979587950A942C
S1133170D2F78D879E87AF87B88B04C0220F331F89
S1133180441F551FEA95D2F789819A81AB81BC818E
S113319004C0B695A795979587956A95D2F7282B7D
S11331A0392B4A2B5B2B29873A874B875C872984E9
S11331B03A844B845C846D847E848F8498881BC09D
S11331C01D861E861F86188A2E2F332727FD3095CD
S11331D0309521953F4F8D819E81AF81B88504C084
S11331E0B695A795979587952A95D2F789879A8753
S11331F0AB87BC87DCCF222D332D442D552D662D76
S1133200772D882D992DE2E160960C947519991B00
S113321079E004C0991F961708F0961B881F7A95C9
S1133220C9F780950895AA1BBB1B51E107C0AA1FCB
S1133230BB1FA617B70710F0A61BB70B881F991F53
S11332405A95A9F780959095BC01CD01089597FBF7
S1133250092E07260AD077FD04D0E5DF06D000202A
S11332601AF4709561957F4F0895F6F790958195BE
S11332709F4F0895629FD001739FF001829FE00DDC
S1133280F11D649FE00DF11D929FF00D839FF00DE1
S1133290749FF00D659FF00D9927729FB00DE11D8D
S11332A0F91F639FB00DE11DF91FBD01CF0111246A
S11332B008952F923F924F925F926F927F928F92D6
S11332C09F92AF92BF92CF92DF92EF92FF920F93B1
S11332D01F93CF93DF93CDB7DEB7CA1BDB0B0FB6BB
S11332E0F894DEBF0FBECDBF09942A883988488878
S11332F05F846E847D848C849B84AA84B984C8840E
S1133300DF80EE80FD800C811B81AA81B981CE0F04
S1133310D11D0FB6F894DEBF0FBECDBFED010895E9
S1133320FB01DC0104C08D910190801921F441500E
S11333305040C8F7881B990B0895DC0101C06D93B8
S10D334041505040E0F70895FFCF1C
S113334A010001003D00AD000B017301DF014702DA
S113335AB102DE0201FFFFFFFF010022FFFFFF00AF
S9030000FC
